{
  "_format": "hh-sol-artifact-1",
  "contractName": "EventTicket",
  "sourceName": "contracts/EventTicket.sol",
  "abi": [
    {
      "anonymous": false,
      "inputs": [
        {
          "indexed": true,
          "internalType": "uint256",
          "name": "eventId",
          "type": "uint256"
        },
        {
          "indexed": false,
          "internalType": "string",
          "name": "name",
          "type": "string"
        },
        {
          "indexed": true,
          "internalType": "address",
          "name": "organizer",
          "type": "address"
        }
      ],
      "name": "EventCreated",
      "type": "event"
    },
    {
      "anonymous": false,
      "inputs": [
        {
          "indexed": true,
          "internalType": "uint256",
          "name": "eventId",
          "type": "uint256"
        },
        {
          "indexed": true,
          "internalType": "address",
          "name": "buyer",
          "type": "address"
        },
        {
          "indexed": false,
          "internalType": "uint256",
          "name": "ticketId",
          "type": "uint256"
        }
      ],
      "name": "TicketPurchased",
      "type": "event"
    },
    {
      "anonymous": false,
      "inputs": [
        {
          "indexed": true,
          "internalType": "uint256",
          "name": "eventId",
          "type": "uint256"
        },
        {
          "indexed": true,
          "internalType": "uint256",
          "name": "ticketId",
          "type": "uint256"
        },
        {
          "indexed": true,
          "internalType": "address",
          "name": "user",
          "type": "address"
        }
      ],
      "name": "TicketUsed",
      "type": "event"
    },
    {
      "inputs": [
        {
          "internalType": "string",
          "name": "name",
          "type": "string"
        },
        {
          "internalType": "string",
          "name": "location",
          "type": "string"
        },
        {
          "internalType": "uint256",
          "name": "date",
          "type": "uint256"
        },
        {
          "internalType": "uint256",
          "name": "price",
          "type": "uint256"
        },
        {
          "internalType": "uint256",
          "name": "ticketsAvailable",
          "type": "uint256"
        }
      ],
      "name": "createEvent",
      "outputs": [],
      "stateMutability": "nonpayable",
      "type": "function"
    },
    {
      "inputs": [
        {
          "internalType": "uint256",
          "name": "",
          "type": "uint256"
        },
        {
          "internalType": "uint256",
          "name": "",
          "type": "uint256"
        }
      ],
      "name": "eventTickets",
      "outputs": [
        {
          "internalType": "uint256",
          "name": "eventId",
          "type": "uint256"
        },
        {
          "internalType": "address",
          "name": "owner",
          "type": "address"
        },
        {
          "internalType": "bool",
          "name": "isUsed",
          "type": "bool"
        }
      ],
      "stateMutability": "view",
      "type": "function"
    },
    {
      "inputs": [
        {
          "internalType": "uint256",
          "name": "",
          "type": "uint256"
        }
      ],
      "name": "events",
      "outputs": [
        {
          "internalType": "uint256",
          "name": "id",
          "type": "uint256"
        },
        {
          "internalType": "string",
          "name": "name",
          "type": "string"
        },
        {
          "internalType": "string",
          "name": "location",
          "type": "string"
        },
        {
          "internalType": "uint256",
          "name": "date",
          "type": "uint256"
        },
        {
          "internalType": "uint256",
          "name": "price",
          "type": "uint256"
        },
        {
          "internalType": "uint256",
          "name": "ticketsAvailable",
          "type": "uint256"
        },
        {
          "internalType": "address",
          "name": "organizer",
          "type": "address"
        }
      ],
      "stateMutability": "view",
      "type": "function"
    },
    {
      "inputs": [
        {
          "internalType": "uint256",
          "name": "eventId",
          "type": "uint256"
        }
      ],
      "name": "getEvent",
      "outputs": [
        {
          "components": [
            {
              "internalType": "uint256",
              "name": "id",
              "type": "uint256"
            },
            {
              "internalType": "string",
              "name": "name",
              "type": "string"
            },
            {
              "internalType": "string",
              "name": "location",
              "type": "string"
            },
            {
              "internalType": "uint256",
              "name": "date",
              "type": "uint256"
            },
            {
              "internalType": "uint256",
              "name": "price",
              "type": "uint256"
            },
            {
              "internalType": "uint256",
              "name": "ticketsAvailable",
              "type": "uint256"
            },
            {
              "internalType": "address",
              "name": "organizer",
              "type": "address"
            }
          ],
          "internalType": "struct EventTicket.Event",
          "name": "",
          "type": "tuple"
        }
      ],
      "stateMutability": "view",
      "type": "function"
    },
    {
      "inputs": [
        {
          "internalType": "uint256",
          "name": "eventId",
          "type": "uint256"
        }
      ],
      "name": "getTicketsForEvent",
      "outputs": [
        {
          "components": [
            {
              "internalType": "uint256",
              "name": "eventId",
              "type": "uint256"
            },
            {
              "internalType": "address",
              "name": "owner",
              "type": "address"
            },
            {
              "internalType": "bool",
              "name": "isUsed",
              "type": "bool"
            }
          ],
          "internalType": "struct EventTicket.Ticket[]",
          "name": "",
          "type": "tuple[]"
        }
      ],
      "stateMutability": "view",
      "type": "function"
    },
    {
      "inputs": [
        {
          "internalType": "address",
          "name": "user",
          "type": "address"
        }
      ],
      "name": "getTicketsOfUser",
      "outputs": [
        {
          "internalType": "uint256[]",
          "name": "",
          "type": "uint256[]"
        }
      ],
      "stateMutability": "view",
      "type": "function"
    },
    {
      "inputs": [],
      "name": "nextEventId",
      "outputs": [
        {
          "internalType": "uint256",
          "name": "",
          "type": "uint256"
        }
      ],
      "stateMutability": "view",
      "type": "function"
    },
    {
      "inputs": [
        {
          "internalType": "uint256",
          "name": "eventId",
          "type": "uint256"
        }
      ],
      "name": "purchaseTicket",
      "outputs": [],
      "stateMutability": "payable",
      "type": "function"
    },
    {
      "inputs": [
        {
          "internalType": "uint256",
          "name": "eventId",
          "type": "uint256"
        },
        {
          "internalType": "uint256",
          "name": "ticketId",
          "type": "uint256"
        }
      ],
      "name": "useTicket",
      "outputs": [],
      "stateMutability": "nonpayable",
      "type": "function"
    },
    {
      "inputs": [
        {
          "internalType": "address",
          "name": "",
          "type": "address"
        },
        {
          "internalType": "uint256",
          "name": "",
          "type": "uint256"
        }
      ],
      "name": "userTickets",
      "outputs": [
        {
          "internalType": "uint256",
          "name": "",
          "type": "uint256"
        }
      ],
      "stateMutability": "view",
      "type": "function"
    }
  ],
  "bytecode": "0x608060405234801561001057600080fd5b50611be4806100206000396000f3fe6080604052600436106100915760003560e01c8063779cea7711610059578063779cea77146101b95780639f9d903a146101f8578063b948348c14610223578063cf260baf1461023f578063d7e2e6781461027c57610091565b80630b791430146100965780631d74951f146100d95780632e3c78b8146101165780633c2fc56c146101535780636d1884e01461017c575b600080fd5b3480156100a257600080fd5b506100bd60048036038101906100b89190610e23565b6102a5565b6040516100d09796959493929190610f30565b60405180910390f35b3480156100e557600080fd5b5061010060048036038101906100fb9190610fd9565b610417565b60405161010d91906110c4565b60405180910390f35b34801561012257600080fd5b5061013d60048036038101906101389190610e23565b6104ae565b60405161014a9190611201565b60405180910390f35b34801561015f57600080fd5b5061017a60048036038101906101759190611358565b61059b565b005b34801561018857600080fd5b506101a3600480360381019061019e9190610e23565b610707565b6040516101b091906114f8565b60405180910390f35b3480156101c557600080fd5b506101e060048036038101906101db919061151a565b6108d6565b6040516101ef93929190611569565b60405180910390f35b34801561020457600080fd5b5061020d61094a565b60405161021a91906115a0565b60405180910390f35b61023d60048036038101906102389190610e23565b610950565b005b34801561024b57600080fd5b50610266600480360381019061026191906115bb565b610bd3565b60405161027391906115a0565b60405180910390f35b34801561028857600080fd5b506102a3600480360381019061029e919061151a565b610c04565b005b60016020528060005260406000206000915090508060000154908060010180546102ce9061162a565b80601f01602080910402602001604051908101604052809291908181526020018280546102fa9061162a565b80156103475780601f1061031c57610100808354040283529160200191610347565b820191906000526020600020905b81548152906001019060200180831161032a57829003601f168201915b50505050509080600201805461035c9061162a565b80601f01602080910402602001604051908101604052809291908181526020018280546103889061162a565b80156103d55780601f106103aa576101008083540402835291602001916103d5565b820191906000526020600020905b8154815290600101906020018083116103b857829003601f168201915b5050505050908060030154908060040154908060050154908060060160009054906101000a900473ffffffffffffffffffffffffffffffffffffffff16905087565b6060600360008373ffffffffffffffffffffffffffffffffffffffff1673ffffffffffffffffffffffffffffffffffffffff1681526020019081526020016000208054806020026020016040519081016040528092919081815260200182805480156104a257602002820191906000526020600020905b81548152602001906001019080831161048e575b50505050509050919050565b606060026000838152602001908152602001600020805480602002602001604051908101604052809291908181526020016000905b828210156105905783829060005260206000209060020201604051806060016040529081600082015481526020016001820160009054906101000a900473ffffffffffffffffffffffffffffffffffffffff1673ffffffffffffffffffffffffffffffffffffffff1673ffffffffffffffffffffffffffffffffffffffff1681526020016001820160149054906101000a900460ff161515151581525050815260200190600101906104e3565b505050509050919050565b6040518060e0016040528060005481526020018681526020018581526020018481526020018381526020018281526020013373ffffffffffffffffffffffffffffffffffffffff1681525060016000805481526020019081526020016000206000820151816000015560208201518160010190816106199190611807565b50604082015181600201908161062f9190611807565b50606082015181600301556080820151816004015560a0820151816005015560c08201518160060160006101000a81548173ffffffffffffffffffffffffffffffffffffffff021916908373ffffffffffffffffffffffffffffffffffffffff1602179055509050503373ffffffffffffffffffffffffffffffffffffffff166000547f40fb05b814a900c99fa0a76d919dfdeaf3389540e4ca70f97ba40ca9a38f3797876040516106e191906118d9565b60405180910390a36000808154809291906106fb9061192a565b91905055505050505050565b61070f610d86565b600160008381526020019081526020016000206040518060e0016040529081600082015481526020016001820180546107479061162a565b80601f01602080910402602001604051908101604052809291908181526020018280546107739061162a565b80156107c05780601f10610795576101008083540402835291602001916107c0565b820191906000526020600020905b8154815290600101906020018083116107a357829003601f168201915b505050505081526020016002820180546107d99061162a565b80601f01602080910402602001604051908101604052809291908181526020018280546108059061162a565b80156108525780601f1061082757610100808354040283529160200191610852565b820191906000526020600020905b81548152906001019060200180831161083557829003601f168201915b505050505081526020016003820154815260200160048201548152602001600582015481526020016006820160009054906101000a900473ffffffffffffffffffffffffffffffffffffffff1673ffffffffffffffffffffffffffffffffffffffff1673ffffffffffffffffffffffffffffffffffffffff16815250509050919050565b600260205281600052604060002081815481106108f257600080fd5b9060005260206000209060020201600091509150508060000154908060010160009054906101000a900473ffffffffffffffffffffffffffffffffffffffff16908060010160149054906101000a900460ff16905083565b60005481565b600060016000838152602001908152602001600020905060008160050154116109ae576040517f08c379a00000000000000000000000000000000000000000000000000000000081526004016109a5906119be565b60405180910390fd5b80600401543410156109f5576040517f08c379a00000000000000000000000000000000000000000000000000000000081526004016109ec90611a2a565b60405180910390fd5b806005016000815480929190610a0a90611a4a565b9190505550600060405180606001604052808481526020013373ffffffffffffffffffffffffffffffffffffffff168152602001600015158152509050600260008481526020019081526020016000208190806001815401808255809150506001900390600052602060002090600202016000909190919091506000820151816000015560208201518160010160006101000a81548173ffffffffffffffffffffffffffffffffffffffff021916908373ffffffffffffffffffffffffffffffffffffffff16021790555060408201518160010160146101000a81548160ff0219169083151502179055505050600360003373ffffffffffffffffffffffffffffffffffffffff1673ffffffffffffffffffffffffffffffffffffffff1681526020019081526020016000208390806001815401808255809150506001900390600052602060002001600090919091909150553373ffffffffffffffffffffffffffffffffffffffff16837fdbaaf4c87ce30816c961a81d110622a3227ede77953d4383d514ff88ab2e0fd360016002600088815260200190815260200160002080549050610bb99190611a73565b604051610bc691906115a0565b60405180910390a3505050565b60036020528160005260406000208181548110610bef57600080fd5b90600052602060002001600091509150505481565b6000600260008481526020019081526020016000208281548110610c2b57610c2a611aa7565b5b906000526020600020906002020190503373ffffffffffffffffffffffffffffffffffffffff168160010160009054906101000a900473ffffffffffffffffffffffffffffffffffffffff1673ffffffffffffffffffffffffffffffffffffffff1614610ccd576040517f08c379a0000000000000000000000000000000000000000000000000000000008152600401610cc490611b22565b60405180910390fd5b8060010160149054906101000a900460ff1615610d1f576040517f08c379a0000000000000000000000000000000000000000000000000000000008152600401610d1690611b8e565b60405180910390fd5b60018160010160146101000a81548160ff0219169083151502179055503373ffffffffffffffffffffffffffffffffffffffff1682847fb35ebdfb9515b145e406c5c5a0846ec436db0b9560927af3af7a754d90c4f6ff60405160405180910390a4505050565b6040518060e00160405280600081526020016060815260200160608152602001600081526020016000815260200160008152602001600073ffffffffffffffffffffffffffffffffffffffff1681525090565b6000604051905090565b600080fd5b600080fd5b6000819050919050565b610e0081610ded565b8114610e0b57600080fd5b50565b600081359050610e1d81610df7565b92915050565b600060208284031215610e3957610e38610de3565b5b6000610e4784828501610e0e565b91505092915050565b610e5981610ded565b82525050565b600081519050919050565b600082825260208201905092915050565b60005b83811015610e99578082015181840152602081019050610e7e565b60008484015250505050565b6000601f19601f8301169050919050565b6000610ec182610e5f565b610ecb8185610e6a565b9350610edb818560208601610e7b565b610ee481610ea5565b840191505092915050565b600073ffffffffffffffffffffffffffffffffffffffff82169050919050565b6000610f1a82610eef565b9050919050565b610f2a81610f0f565b82525050565b600060e082019050610f45600083018a610e50565b8181036020830152610f578189610eb6565b90508181036040830152610f6b8188610eb6565b9050610f7a6060830187610e50565b610f876080830186610e50565b610f9460a0830185610e50565b610fa160c0830184610f21565b98975050505050505050565b610fb681610f0f565b8114610fc157600080fd5b50565b600081359050610fd381610fad565b92915050565b600060208284031215610fef57610fee610de3565b5b6000610ffd84828501610fc4565b91505092915050565b600081519050919050565b600082825260208201905092915050565b6000819050602082019050919050565b61103b81610ded565b82525050565b600061104d8383611032565b60208301905092915050565b6000602082019050919050565b600061107182611006565b61107b8185611011565b935061108683611022565b8060005b838110156110b757815161109e8882611041565b97506110a983611059565b92505060018101905061108a565b5085935050505092915050565b600060208201905081810360008301526110de8184611066565b905092915050565b600081519050919050565b600082825260208201905092915050565b6000819050602082019050919050565b61111b81610f0f565b82525050565b60008115159050919050565b61113681611121565b82525050565b6060820160008201516111526000850182611032565b5060208201516111656020850182611112565b506040820151611178604085018261112d565b50505050565b600061118a838361113c565b60608301905092915050565b6000602082019050919050565b60006111ae826110e6565b6111b881856110f1565b93506111c383611102565b8060005b838110156111f45781516111db888261117e565b97506111e683611196565b9250506001810190506111c7565b5085935050505092915050565b6000602082019050818103600083015261121b81846111a3565b905092915050565b600080fd5b600080fd5b7f4e487b7100000000000000000000000000000000000000000000000000000000600052604160045260246000fd5b61126582610ea5565b810181811067ffffffffffffffff821117156112845761128361122d565b5b80604052505050565b6000611297610dd9565b90506112a3828261125c565b919050565b600067ffffffffffffffff8211156112c3576112c261122d565b5b6112cc82610ea5565b9050602081019050919050565b82818337600083830152505050565b60006112fb6112f6846112a8565b61128d565b90508281526020810184848401111561131757611316611228565b5b6113228482856112d9565b509392505050565b600082601f83011261133f5761133e611223565b5b813561134f8482602086016112e8565b91505092915050565b600080600080600060a0868803121561137457611373610de3565b5b600086013567ffffffffffffffff81111561139257611391610de8565b5b61139e8882890161132a565b955050602086013567ffffffffffffffff8111156113bf576113be610de8565b5b6113cb8882890161132a565b94505060406113dc88828901610e0e565b93505060606113ed88828901610e0e565b92505060806113fe88828901610e0e565b9150509295509295909350565b600082825260208201905092915050565b600061142782610e5f565b611431818561140b565b9350611441818560208601610e7b565b61144a81610ea5565b840191505092915050565b600060e08301600083015161146d6000860182611032565b5060208301518482036020860152611485828261141c565b9150506040830151848203604086015261149f828261141c565b91505060608301516114b46060860182611032565b5060808301516114c76080860182611032565b5060a08301516114da60a0860182611032565b5060c08301516114ed60c0860182611112565b508091505092915050565b600060208201905081810360008301526115128184611455565b905092915050565b6000806040838503121561153157611530610de3565b5b600061153f85828601610e0e565b925050602061155085828601610e0e565b9150509250929050565b61156381611121565b82525050565b600060608201905061157e6000830186610e50565b61158b6020830185610f21565b611598604083018461155a565b949350505050565b60006020820190506115b56000830184610e50565b92915050565b600080604083850312156115d2576115d1610de3565b5b60006115e085828601610fc4565b92505060206115f185828601610e0e565b9150509250929050565b7f4e487b7100000000000000000000000000000000000000000000000000000000600052602260045260246000fd5b6000600282049050600182168061164257607f821691505b602082108103611655576116546115fb565b5b50919050565b60008190508160005260206000209050919050565b60006020601f8301049050919050565b600082821b905092915050565b6000600883026116bd7fffffffffffffffffffffffffffffffffffffffffffffffffffffffffffffffff82611680565b6116c78683611680565b95508019841693508086168417925050509392505050565b6000819050919050565b60006117046116ff6116fa84610ded565b6116df565b610ded565b9050919050565b6000819050919050565b61171e836116e9565b61173261172a8261170b565b84845461168d565b825550505050565b600090565b61174761173a565b611752818484611715565b505050565b5b818110156117765761176b60008261173f565b600181019050611758565b5050565b601f8211156117bb5761178c8161165b565b61179584611670565b810160208510156117a4578190505b6117b86117b085611670565b830182611757565b50505b505050565b600082821c905092915050565b60006117de600019846008026117c0565b1980831691505092915050565b60006117f783836117cd565b9150826002028217905092915050565b61181082610e5f565b67ffffffffffffffff8111156118295761182861122d565b5b611833825461162a565b61183e82828561177a565b600060209050601f831160018114611871576000841561185f578287015190505b61186985826117eb565b8655506118d1565b601f19841661187f8661165b565b60005b828110156118a757848901518255600182019150602085019450602081019050611882565b868310156118c457848901516118c0601f8916826117cd565b8355505b6001600288020188555050505b505050505050565b600060208201905081810360008301526118f38184610eb6565b905092915050565b7f4e487b7100000000000000000000000000000000000000000000000000000000600052601160045260246000fd5b600061193582610ded565b91507fffffffffffffffffffffffffffffffffffffffffffffffffffffffffffffffff8203611967576119666118fb565b5b600182019050919050565b7f4e6f207469636b657473206c6566740000000000000000000000000000000000600082015250565b60006119a8600f83610e6a565b91506119b382611972565b602082019050919050565b600060208201905081810360008301526119d78161199b565b9050919050565b7f496e73756666696369656e74207061796d656e74000000000000000000000000600082015250565b6000611a14601483610e6a565b9150611a1f826119de565b602082019050919050565b60006020820190508181036000830152611a4381611a07565b9050919050565b6000611a5582610ded565b915060008203611a6857611a676118fb565b5b600182039050919050565b6000611a7e82610ded565b9150611a8983610ded565b9250828203905081811115611aa157611aa06118fb565b5b92915050565b7f4e487b7100000000000000000000000000000000000000000000000000000000600052603260045260246000fd5b7f4e6f74207469636b6574206f776e657200000000000000000000000000000000600082015250565b6000611b0c601083610e6a565b9150611b1782611ad6565b602082019050919050565b60006020820190508181036000830152611b3b81611aff565b9050919050565b7f5469636b657420616c7265616479207573656400000000000000000000000000600082015250565b6000611b78601383610e6a565b9150611b8382611b42565b602082019050919050565b60006020820190508181036000830152611ba781611b6b565b905091905056fea2646970667358221220fdea7a4648431cdbacaa73698df1bba00ee687cd150db8308a6c04587c3ecf5664736f6c63430008140033",
  "linkReferences": {},
  "deployedLinkReferences": {}
}